:020000040800F2
:1000000000000220010A0008FD090008755D0008D3
:10001000FD090008FD090008FD09000800000000B6
:10002000000000000000000000000000FD090008C2
:10003000FD09000800000000FD090008F95C000847
:10004000FD090008FD090008FD090008FD09000878
:10005000FD090008FD090008FD090008FD09000868
:10006000FD090008FD090008FD090008C148000855
:10007000CD4800081D380008D9480008E5480008A8
:10008000B9580008F13D0008FD090008FD09000805
:10009000FD090008FD090008FD090008FD09000828
:1000A000FD090008FD090008FD090008FD09000818
:1000B000F91A0108051B0108111B0108253E00085B
:1000C000FD090008313E0008FD0900086913010818
:1000D00075130108ED5600081D5700085157000818
:1000E000FD090008FD09000800000000FD090008E6
:1000F000FD090008FD090008FD090008FD090008C8
:10010000FD090008FD0900081D1B010881130108F5
:1001100085570008B9570008FD090008FD090008C7
:10012000FD090008FD090008A5130108D9130108FD
:10013000ED580008FD090008FD090008FD09000848
:1001400000000000000000000000000000000000AF
:10015000FD090008FD090008FD090008ED57000829
:100160003D3E0008FD090008095D00082D5D0008FE
:10017000FD090008515D0008FD090008FD0900089F
:10018000FD090008FD090008215800085158000821
:100190008D13010899130108FD090008FD090008E5
:1001A000FD090008FD090008FD090008FD09000817
:1001B000E1450008FD090008FD090008FD090008E7
:1001C000FD090008FD090008250B0108310B010895
:1001D000FD0900083D0B0108FD090008FD090008A4
:1001E000FD090008FD090008FD090008FD090008D7
:1001F000FD090008FD090008FD090008FD090008C7
:10020000FD090008FD090008FD090008FD090008B6
:10021000FD090008FD090008FD090008FD090008A6
:10022000FD090008FD090008FD09000800000000A4
:10023000FD090008FD09000800000000FD09000894
:10024000FD090008FD090008FD090008FD09000876
:10025000FD090008FD090008FD090008FD09000866
:10026000FD090008FD090008FD090008FD09000856
:10027000FD090008FD09000885580008000000007D
:10028000FD090008FD090008FD0900080000000044
:0802900000000000FD09000858
:1002A00010B5054C237833B9044B13B10448AFF3B0
:1002B00000800123237010BD100600240000000000
:1002C000885E010808B5034B1BB103490348AFF32F
:1002D000008008BD0000000014060024885E0108AC
:1002E00001F0FF01102A2BDB10F0070F08D010F8E7
:1002F000013B013A8B422DD010F0070F42B3F6D1EB
:10030000F0B441EA012141EA014122F007047FF003
:1003100000070023F0E80256083C85EA010586EA5A
:10032000010685FA47F5A3FA87F586FA47F6A5FA96
:1003300087F68EB9EED1F0BC01F0FF0102F00702A2
:1003400032B110F8013B013A83EA010313B1F8D14D
:100350000020704701387047002D06BF354603382E
:10036000073815F0010F07D1013015F4807F02BF67
:10037000013015F4C03F0130F0BC0138704700BFB8
:1003800081F0004102E000BF83F0004330B54FEA46
:1003900041044FEA430594EA050F08BF90EA020FB3
:1003A0001FBF54EA000C55EA020C7FEA645C7FEA46
:1003B000655C00F0E2804FEA5454D4EB5555B8BF69
:1003C0006D420CDD2C4480EA020281EA030382EADA
:1003D000000083EA010180EA020281EA0303362D6C
:1003E00088BF30BD11F0004F4FEA01314FF4801C3F
:1003F0004CEA113102D0404261EB410113F0004F51
:100400004FEA03334CEA133302D0524263EB430307
:1004100094EA050F00F0A780A4F10104D5F1200EA5
:100420000DDB02FA0EFC22FA05F2801841F1000100
:1004300003FA0EF2801843FA05F359410EE0A5F1D4
:1004400020050EF1200E012A03FA0EFC28BF4CF005
:10045000020C43FA05F3C01851EBE37101F00045BB
:1004600007D54FF0000EDCF1000C7EEB00006EEBC8
:100470000101B1F5801F1BD3B1F5001F0CD3490852
:100480005FEA30004FEA3C0C04F101044FEA4452A9
:1004900012F5800F80F09A80BCF1004F08BF5FEA30
:1004A000500C50F1000041EB045141EA050130BD10
:1004B0005FEA4C0C404141EB0101013C28BFB1F522
:1004C000801FE9D291F0000F04BF01460020B1FA6D
:1004D00081F308BF2033A3F10B03B3F120020CDA40
:1004E0000C3208DD02F1140CC2F10C0201FA0CF01E
:1004F00021FA02F10CE002F11402D8BFC2F1200C83
:1005000001FA02F120FA0CFCDCBF41EA0C01904038
:10051000E41AA2BF01EB0451294330BD6FEA040481
:100520001F3C1CDA0C340EDC04F11404C4F120026C
:1005300020FA04F001FA02F340EA030021FA04F37E
:1005400045EA030130BDC4F10C04C4F1200220FAD5
:1005500002F001FA04F340EA0300294630BD21FA13
:1005600004F0294630BD94F0000F83F4801306BFD9
:1005700081F480110134013D4EE77FEA645C18BFCD
:100580007FEA655C29D094EA050F08BF90EA020F64
:1005900005D054EA000C04BF1946104630BD91EA5C
:1005A000030F1EBF0021002030BD5FEA545C05D15F
:1005B0004000494128BF41F0004130BD14F580049E
:1005C0003CBF01F5801130BD01F0004545F0FE4112
:1005D00041F470014FF0000030BD7FEA645C1ABF47
:1005E000194610467FEA655C1CBF0B46024650EA7E
:1005F000013406BF52EA033591EA030F41F40021AA
:1006000030BD00BF90F0000F04BF0021704730B52F
:100610004FF4806404F132044FF000054FF0000104
:1006200050E700BF90F0000F04BF0021704730B5C5
:100630004FF4806404F1320410F0004548BF40429A
:100640004FF000013EE700BF42004FEAE2014FEAEF
:1006500031014FEA02701FBF12F07F4393F07F4FCA
:1006600081F06051704732F07F4208BF704793F0CD
:100670007F4F04BF41F40021704730B54FF46074E0
:1006800001F0004521F000411CE700BF50EA0102E3
:1006900008BF704730B54FF000050AE050EA01028C
:1006A00008BF704730B511F0004502D5404261EBFC
:1006B00041014FF4806404F132045FEA915C3FF43D
:1006C000D8AE4FF003025FEADC0C18BF03325FEADA
:1006D000DC0C18BF033202EBDC02C2F1200300FA8B
:1006E00003FC20FA02F001FA03FE40EA0E0021FAB0
:1006F00002F11444BDE600BF53B94AB9002908BF4E
:1007000000281CBF4FF0FF314FF0FF3000F074B9EC
:10071000ADF1080C6DE904CE00F006F8DDF804E058
:10072000DDE9022304B070472DE9F047089D044637
:100730008E46002B4DD18A42944669D9B2FA82F294
:1007400052B101FA02F3C2F1200120FA01F10CFAD0
:1007500002FC41EA030E94404FEA1C48210CBEFB08
:10076000F8F61FFA8CF708FB16E341EA034306FB91
:1007700007F199420AD91CEB030306F1FF3080F020
:100780001F81994240F21C81023E63445B1AA4B26D
:10079000B3FBF8F008FB103344EA034400FB07F70F
:1007A000A7420AD91CEB040400F1FF3380F00A8150
:1007B000A74240F207816444023840EA0640E41B45
:1007C00000261DB1D4400023C5E900433146BDE8F1
:1007D000F0878B4209D9002D00F0EF800026C5E993
:1007E000000130463146BDE8F087B3FA83F6002EAB
:1007F0004AD18B4202D3824200F2F980841A61EB23
:10080000030301209E46002DE0D0C5E9004EDDE740
:1008100002B9FFDEB2FA82F2002A40F09280A1EB28
:100820000C014FEA1C471FFA8CFE0126200CB1FB7D
:10083000F7F307FB131140EA01410EFB03F0884276
:1008400008D91CEB010103F1FF3802D2884200F203
:10085000CB804346091AA4B2B1FBF7F007FB101195
:1008600044EA01440EFB00FEA64508D91CEB040433
:1008700000F1FF3102D2A64500F2BB800846A4EB8E
:100880000E0440EA03409CE7C6F12007B34022FA79
:1008900007FC4CEA030C20FA07F401FA06F31C43A8
:1008A000F9404FEA1C4900FA06F3B1FBF9F8200CB5
:1008B0001FFA8CFE09FB181140EA014108FB0EF0FB
:1008C000884202FA06F20BD91CEB010108F1FF3A4B
:1008D00080F08880884240F28580A8F10208614457
:1008E000091AA4B2B1FBF9F009FB101144EA014165
:1008F00000FB0EFE8E4508D91CEB010100F1FF3410
:100900006CD28E456AD90238614440EA0840A0FBA7
:100910000294A1EB0E01A142C846A64656D353D07D
:100920005DB1B3EB080261EB0E0101FA07F722FAA1
:1009300006F3F1401F43C5E9007100263146BDE8CA
:10094000F087C2F12003D8400CFA02FC21FA03F32D
:10095000914001434FEA1C471FFA8CFEB3FBF7F0AE
:1009600007FB10360B0C43EA064300FB0EF69E42D3
:1009700004FA02F408D91CEB030300F1FF382FD26C
:100980009E422DD9023863449B1B89B2B3FBF7F614
:1009900007FB163341EA034106FB0EF38B4208D9ED
:1009A0001CEB010106F1FF3816D28B4214D9023E2E
:1009B0006144C91A46EA004638E72E46284605E74C
:1009C0000646E3E61846F8E64B45A9D2B9EB02081D
:1009D00064EB0C0E0138A3E74646EAE7204694E7AD
:1009E0004046D1E7D0467BE7023B614432E73046E0
:1009F00009E76444023842E7704700BFFEE700BFE2
:100A00000B480C4A904203D0121A0B4913F072FDA6
:100A10000A480B4A904203D0121A002113F078FDC5
:100A200005F0D2FB13F03AFD00F01AFDFEE700BF1F
:100A30000000002410060024BC5E010810060024FB
:100A4000D8980124704700BF704700BF704700BFAF
:100A5000704700BF704700BF704700BF704700BFBE
:100A60002DE9F84FDFF8F8900E463848174609F19F
:100A7000380409F572752DED028B00F051FE3348F4
:100A800000F05AFE314800F067FE204602F0AEFA50
:100A900004F1380004ED0C0A02F0A8FA04ED0B0A88
:100AA000E434AC42F1D12A4DDFF8B8A005F10408D6
:100AB000544615F8013BF2EE080A9FED267AB0EE97
:100AC000000A07EE903AF8EE677A77EEC77AC7EE3B
:100AD000A00A13F029F9DFED207A2046303420EE09
:100AE000270A04ED0A0A13F035F8A84504ED040AB4
:100AF000DFD13FB307F1FF3B4FF0000809F5647702
:100B00004FEA5B0B55464C469FED148A2046E43471
:100B100012F062FD284604ED010A303512F038FE6D
:100B200054ED017AA742A0EE278AEFD1D84586ED91
:100B3000008A86ED018A08F1010306F1080601D05A
:100B40009846DFE7BDEC028BBDE8F88F200B002450
:100B50003C2F012400008A420000DC43000000001A
:100B6000A40600240C2E0124F7EE007A70B52DEDBA
:100B7000028BC7EE808A244C244D04F1C006B0EEEF
:100B8000408A4FF07C53224900229FED220A2046E2
:100B90006360E3602161E26184ED058AC4ED068A49
:100BA00084ED020A12F0D6FF15F8013BF2EE080AB6
:100BB0009FED197AF0EE406A07EE903A002101238A
:100BC000164AF8EE677AC4ED086AB0EE000A2170A2
:100BD00084F82D3077EEC77A84F82C306260C7EE47
:100BE000A00A13F0A1F8DFED0E7A2046303420EE93
:100BF000270A04ED0A0A12F0ADFFB44204ED040A1C
:100C0000BFD1BDEC028B70BD0C2E01243C2F012402
:100C1000DB0F49400000C84200008A42CDCCCC3DE9
:100C20000000DC43F0B5204E2DED028BB0EE408A83
:100C300089B006F564771D4C3046B0EE480A6D4623
:100C400012F0B2FC4FF07E5CF0EE000A9FED180A45
:100C5000C6F818C00FCC0FC594E80F00103485E813
:100C60000F00002306F138000122694673613362E8
:100C700002F08CF9EC46F0EE000A9FED0D0A0FCC65
:100C8000ACE80F0094E80F0085E80F0006F1700053
:100C9000E4360122694602F079F9B742CBD109B0B6
:100CA000BDEC028BF0BD00BFA4060024840B002421
:100CB0000AD7233C38B5134D0024E1B2013428464D
:100CC0000C3505F0EFFC072CF7D1F7EE000A9FED8D
:100CD0000E1A0E48B0EE600A05F0F4FCB7EE001AEA
:100CE000DFED090A0A48B0EE410A05F0EBFC9FED82
:100CF000091ADFED090A9FED040A0848BDE83840EB
:100D000005F0E0BC2C060024000000008006002452
:100D10008C060024CDCCCC3E3333333F98060024E0
:100D2000644B30B51C7885B0012C08D0022C39D02A
:100D3000032C64D0042C00F08F8005B030BD07EE8A
:100D4000900A9FED5D7A5D4AF2EE080AF8EE677A46
:100D5000DD789978B0EE000A107077EEC77A5A788D
:100D60001D70D9709A70C7EEA00A5C7012F0DCFF9B
:100D7000DFED537A534D20EE270A284685ED020A0F
:100D800012F0E8FE5049514A01AB81F8344085ED3C
:100D9000080A07CA83E8070019464D4802F0A4F97B
:100DA00005B030BD07EE900A9FED437A434AF2EE5C
:100DB000080AF8EE677A9978DD78B0EE000A50708C
:100DC00077EEC77A5A78D9705C709A70C7EEA00A2D
:100DD0001D7012F0A9FFDFED3A7A3A4C20EE270A97
:100DE00004F1300084ED0E0A12F0B4FE3649012001
:100DF000384A01AB84ED140A81F81801C9E707EEFF
:100E0000900A9FED2D7A2D4AF2EE080AF8EE677AE5
:100E10009978DD78B0EE000A907077EEC77A5A784C
:100E2000D9705C709A70C7EEA00A1D7012F07CFF3A
:100E3000DFED237A234C20EE270A04F1600084EDD5
:100E40001A0A12F087FE20490120234A01AB84EDE3
:100E5000200A81F8FC019CE707EE900A9FED167AC4
:100E6000164AF2EE080AF8EE677A9978DD78B0EE65
:100E7000000AD07077EEC77A5A78D9705C709A7091
:100E8000C7EEA00A1D7012F04FFFDFED0D7A0D4C7A
:100E900020EE270A04F1900084ED260A12F05AFE93
:100EA000094901200D4A01AB84ED2C0A81F8E002CA
:100EB0006FE700BF0400002400008A423C2F012499
:100EC0000000DC430C2E0124A4060024500600245C
:100ED000F40B00245C060024680600247406002439
:100EE0002DE9F04100F51044C8B0054694F8AC3047
:100EF0001942037918D0032B1CD00022027194F8F8
:100F0000B0300B40C36094F8AD300B401B09092B87
:100F1000037206D80120072B287184F8A43000F052
:100F2000E88048B0BDE8F081032BFAD8DFE803F091
:100F30008D115802F72900F0C38095F9922095F899
:100F40009230002AEDDBEA180133917485F8923073
:100F5000E7E794F8AE8001EA080885F8108094F875
:100F6000A4703B1F012B06D995F8933003F0FD03C5
:100F7000012B40F0BB8000236E46902205F1080152
:100F800030462B7113F0B6FAD4F89830D4F89C2080
:100F9000013B9B1ADBB2002BF6D0902231460DEBC1
:100FA000020013F0A7FAD4F89C6024A9902206EB63
:100FB000C600013605EB0010F6B2983013F09AFA2D
:100FC000C4F89C60B8F1770FABD9032FA9D10923DE
:100FD000A8F178012B7284F8A43085F89510A0E769
:100FE00094F8AE301940697494F8A430012B02D102
:100FF000002900F08C806E46902205F108013046F1
:1010000013F078FAD4F89830D4F89C20013B9B1A5E
:10101000DBB2002BF6D0902231460DEB020013F02C
:1010200069FAD4F89C6024A9902206EBC600013628
:1010300005EB0010F6B2983013F05CFA0023C4F808
:101040009C602B7148B0BDE8F08194F8A4302B72FD
:10105000043B94F8AE20012B01EA0201297405D962
:1010600095F8933003F0FD03012B3CD100236E462D
:10107000902205F1080130462B7113F03BFAD4F8A9
:101080009830D4F89C20013B9B1ADBB2002BF6D0A1
:10109000902231460DEB020013F02CFAD4F89C603C
:1010A00024A9902206EBC600013605EB0010F6B22B
:1010B000983013F01FFAC4F89C6048B0BDE8F08186
:1010C00000236E46902205F1080130462B7113F083
:1010D00011FAD4F89830D4F89C20013B9B1ADBB26B
:1010E000002BF6D0D4E702232B711AE702232B71D1
:1010F00068E711F00800EA6036D101F0070385F8CF
:1011000093303BB9032285F892302A7109E7002316
:101110002B7270E74B077FF504AF6E462871902263
:1011200005F10801304613F0E5F9D4F89830D4F809
:101130009C20013B9B1ADBB2002BF6D0902231465B
:101140000DEB020013F0D6F9D4F89C6024A990228C
:1011500006EBC60005EB0010983013F0CBF9731CBA
:10116000DBB2C4F89C30DCE608236E462B723046B6
:1011700084F8A43094F8B2302A719022194085F88E
:10118000941005F1080113F0B5F9D4F89830D4F8AB
:101190009C20013B9B1ADBB2002BF6D0CEE700BFB0
:1011A0002DE9F04100F51044C8B0054694F8B4307C
:1011B0001942037918D0032B1CD00022027194F835
:1011C000B8300B40C36094F8B5300B401B09092BB5
:1011D000037206D80120072B287184F8A43000F090
:1011E000E88048B0BDE8F081032BFAD8DFE803F0CF
:1011F0008D115802F72900F0C38095F9922095F8D7
:101200009230002AEDDBEA180133917485F89230B0
:10121000E7E794F8B68001EA080885F8108094F8AA
:10122000A4703B1F012B06D995F8933003F0FD0302
:10123000012B40F0BB8000236E46902205F108018F
:1012400030462B7113F056F9D4F89830D4F89C201E
:10125000013B9B1ADBB2002BF6D0902231460DEBFE
:10126000020013F047F9D4F89C6024A9902206EB01
:10127000C600013605EB0010F6B2983013F03AF9CB
:10128000C4F89C60B8F1770FABD9032FA9D109231B
:10129000A8F178012B7284F8A43085F89510A0E7A6
:1012A00094F8B6301940697494F8A430012B02D137
:1012B000002900F08C806E46902205F1080130462E
:1012C00013F018F9D4F89830D4F89C20013B9B1AFD
:1012D000DBB2002BF6D0902231460DEB020013F06A
:1012E00009F9D4F89C6024A9902206EBC6000136C7
:1012F00005EB0010F6B2983013F0FCF80023C4F8A8
:101300009C602B7148B0BDE8F08194F8A4302B723A
:10131000043B94F8B620012B01EA0201297405D997
:1013200095F8933003F0FD03012B3CD100236E466A
:10133000902205F1080130462B7113F0DBF8D4F848
:101340009830D4F89C20013B9B1ADBB2002BF6D0DE
:10135000902231460DEB020013F0CCF8D4F89C60DB
:1013600024A9902206EBC600013605EB0010F6B268
:10137000983013F0BFF8C4F89C6048B0BDE8F08125
:1013800000236E46902205F1080130462B7113F0C0
:10139000B1F8D4F89830D4F89C20013B9B1ADBB20A
:1013A000002BF6D0D4E702232B711AE702232B710E
:1013B00068E711F00800EA6036D101F0070385F80C
:1013C00093303BB9032285F892302A7109E7002354
:1013D0002B7270E74B077FF504AF6E4628719022A1
:1013E00005F10801304613F085F8D4F89830D4F8A8
:1013F0009C20013B9B1ADBB2002BF6D09022314699
:101400000DEB020013F076F8D4F89C6024A990222A
:1014100006EBC60005EB0010983013F06BF8731C58
:10142000DBB2C4F89C30DCE608236E462B723046F3
:1014300084F8A43094F8BA302A719022194085F8C3
:10144000941005F1080113F055F8D4F89830D4F849
:101450009C20013B9B1ADBB2002BF6D0CEE700BFED
:101460002DE9F0475D4C82B000215D48002500F079
:1014700021FA04F510480421594804F1980700F0B6
:1014800033F9574800F046F9294608F1A80088F8D2
:10149000A550DFF860918DED010A01F0E1FE0A230D
:1014A000C8F89C504F48C8F898502372257104F032
:1014B000CDFAA9F510459DED010AFFF755FB9DED0D
:1014C000010AFFF7AFFB05F50576FFF7F3FBA9F57A
:1014D000104000F021F94449A9F5104000F002F94C
:1014E00004F0B8FC824607E0C8F8A0A001F0EEFEC8
:1014F00001463A48FFF7F4FC3C4801F0DDFE0346A4
:101500003A48002BF0D1394801F0F4FE0346002898
:101510005CD004F09FFC824607E0C9F81CA204F0EE
:1015200081FA01463248FFF73BFE2E4804F012FBD9
:1015300003462C48002BF0D1D8F89C30D8F89820DE
:101540009B1ADBB25BB3D8F89C30D8F898209B1A72
:10155000DBB2002BF7D0D8F8983003EBC30201338D
:101560001201DBB2B95C2244C8F89830012992F824
:10157000A000E1D1FFF7D4FB194800F0EDF8DBE75C
:10158000D9F8143203EBC30201331201DBB2B15CB0
:101590002A44C9F81432012992F81C0210D0D9F853
:1015A0001832D9F814229B1ADBB2002B98D0D9F844
:1015B0001832D9F814229B1ADBB2002BF7D0DFE7E0
:1015C000FFF7AEFB064800F0C7F8E8E707482371CD
:1015D00001F094FE054801F06BFE9AE7589D002447
:1015E000200B00244C9D0024610A0008002E0124D9
:1015F0009C0C0024209B00242DE9F8432A4D002058
:101600002A494FF60F072A46044612F0AFFA284837
:10161000284A072600F51043DFF8C0801188928819
:10162000C3F82442C3F82C42A3F82812A3F82A22B4
:101630002A46C3F83082A3F8347283F83662DFF8A2
:10164000A0901D49046044610462C0F87C4112F01E
:101650008DFA2A461949204612F088FA2A46494648
:10166000174812F083FA2A464946164812F07EFAC5
:1016700015482A46154900F510430460C3F8AC80AC
:10168000A3F8B070C3F8A84083F8B26012F06EFA05
:101690002A460F49204612F069FA2A460D490E489B
:1016A000BDE8F84312F062BA000000244D0A0008B9
:1016B000200B0024A0550108490A00085D0A000813
:1016C000042F0124CC2E0124589D0024550A000823
:1016D000590A0008510A0008340A002480707FF07B
:1016E000450A000800F08AB938B5044600F08EF9C2
:1016F000D4F8A450204600F0A5F9284601F0ACFB30
:10170000D4F8A850204600F09DF92846BDE838409E
:1017100001F0A2BB00F076B9183002F013B800BF98
:1017200010B50446643001F073FB04F18400BDE899
:10173000104001F06DBB00BF10B504463C3001F015
:10174000E7FB04F1AC0001F00DFD04F1BC00BDE8C5
:10175000104001F007BD00BF10B50446D43001F0C1
:10176000D9FC04F59470BDE8104001F0D3BC00BF73
:10177000F0B504468DB01420012500F029F9034688
:10178000132004F1D407ADF80C3000F021F9034622
:10179000122004F5947406AEADF8103000F018F97C
:1017A0000399ADF8140038460095DDE9042301F0F3
:1017B00073FC112000F00CF903461820ADF80C3032
:1017C00000F006F9ADF81000172000F001F9ADF8AF
:1017D0001400059B2046049A0399009509AD01F079
:1017E0005BFC3046072104F05DFF96E8070085E8C2
:1017F00007002946384601F077FC96E8070085E89F
:1018000007002946204601F06FFC384601F082FCB3
:1018100020460DB0BDE8F04001F07CBC2DE9F04160
:1018200004461520002504F1180704F1A4062DED47
:10183000028B8EB09FED1E8A00F0CAF8034605A801
:10184000ADF80C30039901F08BFD0F2000F0C0F8CB
:1018500003460DF12500ADF81030049901F080FD2C
:101860000423022205A9384601F088FD04F1640230
:1018700004F18403C4E929232946384656F8048B29
:1018800001F076FF01462046019100F0DBF80023CD
:10189000F0EE480A019940461A4601F087FA25B150
:1018A0000EB0BDEC028BBDE8F0810125E4E700BF7E
:1018B0006F12033B70B59FED420A8EB004468DED6A
:1018C000010A009100F082F80099204600F026F904
:1018D0001B2000F07DF8034604F1AC069DED010AE3
:1018E000ADF8143004F1BC05059930468DED000AC1
:1018F00001F01EFC1C2000F06BF8ADF818009DED07
:10190000000A2846069901F013FC1A20C4E9336541
:1019100000F05EF8034619200025ADF80C3000F009
:1019200057F803460D2004F51046ADF8103000F0CE
:101930004FF8ADF81C0004F13C009DED000A049A3C
:101940000399079B01F0B4FA2046FFF711FF2046E8
:10195000FFF764FF01231B4A49F22C20099307A9D2
:101960000C9347F6122320440A950D930223089501
:101970000B93154BC6E98952079303F0DDFF0A2349
:10198000C6F818523021C6F81452204684F8843123
:1019900084F8805100F03AF8D4F8A450204600F0C2
:1019A00051F8284601F058FAD4F8A850204600F023
:1019B00049F828460EB0BDE8704001F04DBA00BFAE
:1019C000000000000107010601060107704700BF83
:1019D000202882B009D8084B03EB400213F81030DE
:1019E000507843EA002002B0704701230C2043EAFC
:1019F000002002B0704700BF04560108143001F007
:101A0000ADB900BF143001F0A5B900BF38B500F181
:101A1000140504462DED028B284601F08DF9284669
:101A200001F098F92846B0EE408A01F081F9D0ED36
:101A3000007AF8EE677A88EE277ABDEC028B84EDA7
:101A40000E7A38BD90ED0E0A704700BFF0B5032343
:101A500099B000270125129306462C4B09A815952D
:101A6000CDE90E7340F20453ADF84030284BCDE978
:101A70001357099301F07EFF09A802F057F80028D8
:101A800036D1244B04AF04460090CDF842301023E9
:101A9000394604958DF820301F4BCDE91650CDE91D
:101AA00006506846059302F0CFF90823009A01A971
:101AB00009A8ADF804508DF80640099402950393E7
:101AC00000F0E4F800230EA938463024049302F015
:101AD00083FF03224FF07E5309A906F114000B93F4
:101AE0000C93CDE90942049A01F0EAF819B0F0BD6F
:101AF00040F60132074B169704AFADF82420099841
:101B0000CDF84230179500F081F8DBE704020404B9
:101B100003030001040604030704010B2DE9F0434D
:101B200004462DED028B83B0002948D0012140F2FC
:101B3000011200230091ADF804208DF80630304AE0
:101B40000126304B271D304904F12908626040F21C
:101B50000272A36040F60663E16004F12509268263
:101B6000A4F8252084F82760A4F8293084F82B6095
:101B700004F0E0FA6946054648B304F130008DF8F8
:101B8000066004F035FA072D34D104F1140520461F
:101B9000FFF75CFF284601F0DDF82846B0EE408AEA
:101BA00001F0C6F8D0ED007AF8EE677A88EE277A71
:101BB00084ED0E7A03B0BDEC028BBDE8F08340F2F9
:101BC000011300918DF80610ADF80430B7E704F169
:101BD000300004F00DFA3946204602F07DFB4846FD
:101BE00001F0C8FE404601F0C5FE04F1120000F00D
:101BF00077F9CAE73946204602F06EFBC5E700BF19
:101C00000508050905070506050A060610B584B08E
:101C100003460124ADF8040003A8ADF80C30ADF87C
:101C20000E4001F0A7FE214603A801F08DFF2046DB
:101C300004F012F9002103A801F086FF204604F009
:101C40000BF9214603A801F07FFF04B010BD00BFCF
:101C500010B5C2F3002384B00C46017C8DF80D2032
:101C600043EA4402FA2402238DF80C2003AA0094CC
:101C700002F080F918B10124204604B010BD0446DA
:101C80000A2004F0E9F8204604B010BD034670B500
:101C900043F8042B044684B007C983E80700A379FE
:101CA00083B91A210B461E22FA2523742046ADF86B
:101CB0000C20022303AA009502F05CF928B1012050
:101CC00004B070BD1B210B46EDE70A2004F0C4F8F8
:101CD0004FF4B85200950223ADF80C20204603AA19
:101CE000217C02F047F90028E9D10A2004F0B4F879
:101CF00041F2027200950223ADF80C20204603AA9F
:101D0000217C02F037F90028D9D10A2004F0A4F888
:101D1000042200950223ADF80C20204603AA217C62
:101D200002F028F90028CAD10A2004F095F806220A
:101D300000950223ADF80C20204603AA217C02F076
:101D400019F90028BBD10A2004F086F841F20822D4
:101D500000950223ADF80C20204603AA217C02F056
:101D600009F90028ABD10A20064604F075F8009561
:101D7000022303AA217C2046ADF80C6002F0FAF899
:101D800000289CD1304604F067F8009522790C2396
:101D90002046002A8DF80C3003AA4FF0020314BF2E
:101DA000622142218DF80D10217C02F0E3F8002819
:101DB00085D1304604F050F82279D4E902310B4342
:101DC000DBB20AB943F0400362790AB143F0200361
:101DD0000E22FA258DF80D302046009502238DF84D
:101DE0000C2003AA217C02F0C5F800287FF467AF1D
:101DF0000A2004F031F8102200950223ADF80C20DF
:101E0000204603AA217C02F0B5F800287FF457AFE2
:101E10000A2004F021F8122100950223ADF80C10DD
:101E200003AA217C204602F0A5F800287FF447AFE2
:101E30000A2004F011F8012209212046FFF708FFCB
:101E4000003818BF01203BE7F0B5102387B0234CC2
:101E5000012200250126002702A920460195CDE98F
:101E600002234FF48052CDE904670BF0A7F96420F8
:101E700004F052FD02A94FF480522046CDE90467D8
:101E800002261027CDE902670BF098F903221023F0
:101E900002A92046CDE9022300230422CDE9042330
:101EA0004FF480520BF08AF940F23223042202A947
:101EB000019310232046CDE90223019A01230592C4
:101EC0004FF4805204930BF079F940F60601204656
:101ED0000BF094F9284607B0F0BD00BF482F01244D
:101EE0001C4B00221C494FF0400C30B5054689B010
:101EF0000220596007219A601A620124DA620A22DC
:101F00004FF4006EDC6006922022CDE9000104202F
:101F10000821CDE9020103201021CDE904010820A8
:101F20006946C3E904024FF4C072181DC3E906C232
:101F30004FF48052C3E909E20BF016F938B928468C
:101F4000FFF782FF003818BF012009B030BD2046DE
:101F500009B030BD442F012440410052614A0021A4
:101F6000D0B513688EB00A91002B40F0B9805E4B5B
:101F700001214FF683700C2411600221D3F8D42084
:101F80000026032742F48052C3F8D420D3F8D4208B
:101F900002F480520092009AD3F8E02042F010023E
:101FA000C3F8E020D3F8E02002F010020192019A79
:101FB000D3F8E02042F04002C3F8E020D3F8E0205C
:101FC00002F040020292029AD3F8E02042F00802A6
:101FD000C3F8E020D3F8E02002F008020392039A4D
:101FE000D3F8E02042F48072C3F8E020D3F8E02078
:101FF00002F480720492049AD3F8E02042F0800246
:10200000C3F8E020D3F8E02002F080020592059AA0
:10201000D3F8E02042F02002C3F8E020D3F8E0201B
:1020200002F020020692069AD3F8E02042F0040261
:10203000C3F8E020D3F8E0300C9403F004030793D6
:102040000323079A0B93CDE9080108A9274806F056
:10205000E9FA48F23712022308A925480C94CDE981
:102060000823CDE90A6706F0DDFA4CF20372022379
:1020700008A920480C94CDE90823CDE90A6706F0A9
:10208000D1FA40F2FF62022308A91B480C94CDE963
:102090000823CDE90A6706F0C5FA4FF60C72022351
:1020A00008A916480C94CDE90823CDE90A6706F083
:1020B000B9FA4FF63F02022308A911480C94CDE962
:1020C0000823CDE90A6706F0ADFA2022022308A909
:1020D0000A480C94CDE90A67CDE9082306F0A2FA74
:1020E0000EB0D0BD402F0124004402580010025809
:1020F00000180258000C025800200258001C025818
:10210000001402582DE9F04FDFF8108406460D4602
:10211000144608F118002DED028B89B000AF02F0D3
:1021200053FDD8F8183073B3D8F81C30D8F80490A1
:10213000002B43690BBF4FF0080A4FF0100A4FF015
:10214000020B4FF0040BB9F1000F2AD0A200EA46AF
:10215000012B02F1070222F00702ADEB020D6846E7
:10216000ADEB020D694600F03F81022B00F0D680F6
:10217000002B6FD02246C847D5462437BD46BDEC5C
:10218000028BBDE8F08FD8F81C30002BF5D0D8F8C2
:1021900004904FF0080A4FF0020B4369B9F1000FA9
:1021A000D4D1FB61D8F80030BB61002BE5D0D54815
:1021B00002F07CFD6B46BBF1020F786108EE103A2D
:1021C000FB6900F083816A465146A2EBC402954642
:1021D0006200EA46B2FBFBF2AAEBC40085460AEBBA
:1021E0008200EE46F861ADEB010DF8690EEB820C52
:1021F000C7F810C0EC46ADEB010D00EB8201CCF846
:102200000400CCF8081001EB82013869E946CCF8EB
:102210000C1000EB8201CCF800A001EB8202C9E9AE
:1022200000E0C9E90212012B00F06483022B00F0E8
:102230006C82002B00F08081620849466046BB69D1
:10224000984718EE103A24379D46BD46BDEC028BE8
:10225000BDE8F08F002C8DD01A46D8ED0C6A9FEDAA
:10226000B27A8446331D36F922E00CF1080C07EEF1
:1022700090EA33F922E00232F8EEE77A944267EE10
:10228000877A67EEA67A4CED027A07EE90EAF8EECE
:10229000E77A67EE877A67EEA67A4CED017AE2D8A4
:1022A000F9612246C847984ED8ED0D6A0020F969B9
:1022B0002B1D9FED9E7A9FED9E6ADFED9E5A22E0D8
:1022C000F4EEC67AF1EE10FAC0F2C88447F6FE7258
:1022D000D1ED017A45F8202066EEA77AF4EEC77AB0
:1022E000F1EE10FA40F2F080F4EEC67AF1EE10FA58
:1022F000C0F2D58447F6FE7243F820200230083140
:1023000084427FF639AFD1ED007A66EEA77AF4EE1B
:10231000C77AF1EE10FAD3D83246D9E7002C3FF451
:1023200029AFD8ED0C6A84469FED787A0022331DE0
:102330008E4656F822100CF1080C07EE901A53F84E
:1023400022100232F8EEE77A944267EE877A67EE5F
:10235000A67A4CED027A07EE901AF8EEE77A67EE6D
:10236000877A67EEA67A4CED017AE2D8714622466A
:10237000C7F81CE0C847664ED8ED0D6A0020F96921
:102380002B1D9FED6A7A9FED6A6ADFF894C120E009
:10239000F4EEC67AF1EE10FAC0F279843246D1ED4D
:1023A000017A45F8202066EEA77AF4EEC77AF1EEBE
:1023B00010FA40F28780F4EEC67AF1EE10FAC0F21D
:1023C0005E84324643F820200230083184427FF692
:1023D000D3AED1ED007A66EEA77AF4EEC77AF1EECD
:1023E00010FAD5D86246DAE7002C3FF4C3AED8ED38
:1023F0000C6A86469FED477A4FF0000C331D56F865
:102400002C200EF1080E82F40002A2F5000207EE65
:10241000902A53F82C200CF1020CF8EEE77A82F4A3
:1024200000026445A2F5000267EE877A67EEA67A9D
:102430004EED027A07EE902AF8EEE77A67EE877A99
:1024400067EEA67A4EED017AD9D8F9612246C847DF
:10245000314ED8ED0D6A0020F9692B1D9FED337ABE
:102460009FED336ADFF8BCC01FE0F4EEC67AF1EEF0
:1024700010FAC0F2FC833246D1ED017A45F82020F3
:1024800066EEA77AF4EEC77AF1EE10FA18D9F4EEF8
:10249000C67AF1EE10FAC0F2DA83324643F8202011
:1024A0000230083184427FF667AED1ED007A66EEE5
:1024B000A77AF4EEC77AF1EE10FAD6D86246DBE7D7
:1024C0006246EBE762467DE7324615E7A100D64655
:1024D0006208073121F00701ADEB010DEA46ADEBD3
:1024E000010D6946ADEB0E0D0AEB8200EC46ADEB3B
:1024F0000E0D01EB8202F861E946CCE900A0C9E9C2
:10250000001290E6982F01240280FFFF00000030A7
:102510000082FF7F0000003482FF7F007C2F0124B7
:10252000007E00807E0080FF0000003804FF7FBF37
:1025300004FF7F3F00FEFF46002C00F0C982BBF184
:10254000020FD8F8242000F0FA827969C7F80490C5
:1025500002EB810E5FED0C5A8A00DCF808100EF1D8
:1025600004007A611A46DCF80C303B61331DD7F861
:1025700010903D61FD69C7E902CB8C46834636F970
:102580002210D8ED0C7A06EE101A33F9221006EE5E
:10259000901A3EF92210B8EEC66A07EE101AF8EE4D
:1025A000E66A3BF92210B8EEC77A26EE256A66EE97
:1025B000A56A27EE257A26EE276A66EEA76A27EE39
:1025C000277A07EE901A51080232F8EEE77A0AEB02
:1025D0008100944280ED006A05EB810067EEA57AE8
:1025E000C0ED006A0CEB810009EB810180ED007AFF
:1025F00098ED0C7A67EE877AC1ED007ABFD8D7F8EC
:1026000004903D69D7E902CB60466208BB69494640
:102610009847D8F82C307A69D8ED0D6A1A441FED26
:102620003D7A1FED3D6A2B1D904602F1040A5FEDD5
:102630003F5A0022A84ED9E900EC51E0F4EEC67AE8
:10264000F1EE10FAC0F2C78247F6FE7045F822009C
:102650000CEB0100D0ED007A66EEA77AF4EEC77AB3
:10266000F1EE10FA4BD9F4EEC67AF1EE10FAC0F2A0
:10267000BA8247F6FE70BBF1020F43F822002BD05E
:10268000D9F808000844D0ED007A66EEA77AF4EE97
:10269000C77AF1EE10FA36D9F4EEC67AF1EE10FAF6
:1026A000C0F2CD8247F6FE7048F82200D9F80C003F
:1026B0000144D1ED007A66EEA77AF4EEC77AF1EE26
:1026C00010FA1ED9F4EEC67AF1EE10FAC0F2AF821B
:1026D00047F6FE714AF82210023294427FF6B1ADFD
:1026E00051080EEB81008900D0ED007A66EEA77AE2
:1026F000F4EEC77AF1EE10FAA0D83046A6E73046DD
:10270000B9E73146E6E73046CEE7002C00F0E0813D
:10271000BBF1020FD8F8243000F0E1817A69DCF8CF
:10272000081003EB820EC7F804909300DFED6B5A9C
:102730000EF1040000227B61DCF80C303B61331D9C
:10274000D7F810903D61FD69C7E902CB8C468346FE
:1027500056F82210D8ED0C7A07EE101A53F8221012
:10276000B8EEC76A07EE101A5EF82210F8EEC76AD4
:1027700007EE101A26EE256A5BF82210B8EEC77A2B
:1027800066EEA56A26EE276A27EE257A66EEA76A28
:1027900027EE277A07EE901A51080232F8EEE77A10
:1027A0000AEB8100944280ED006A05EB810067EE40
:1027B000A57AC0ED006A0CEB810009EB810180ED88
:1027C000007A98ED0C7A67EE877AC1ED007ABFD86F
:1027D000D7F804903D69D7E902CB60466208BB692F
:1027E00049469847D8F82C307A69D8ED0D6A1A44D2
:1027F0009FED3E7A9FED3E6A131D9246DFF8E4C0DE
:102800000022FB612B1D364ED9E9008E4EE0F4EE1E
:10281000C67AF1EE10FAC0F2FC81304645F822008B
:102820000EEB0100D0ED007A66EEA77AF4EEC77ADF
:10283000F1EE10FA49D9F4EEC67AF1EE10FAC0F2D0
:10284000EF813046BBF1020F43F822002AD0D9F8BD
:1028500008000844D0ED007A66EEA77AF4EEC77A55
:10286000F1EE10FA35D9F4EEC67AF1EE10FAC0F2B4
:10287000C98130464AF82200D9F80C000144D1ED54
:10288000007A66EEA77AF4EEC77AF1EE10FA1ED956
:10289000F4EEC67AF1EE10FAC0F2AD813146F86975
:1028A00040F82210023294427FF6CBAC510808EB7C
:1028B00081008900D0ED007A66EEA77AF4EEC77A3F
:1028C000F1EE10FAA3D86046A8E76046BAE7614681
:1028D000E5E76046CEE700BF0280FFFF0000003062
:1028E0000082FF7F007E00800000003404FF7FBF75
:1028F00004FF7F3F002C00F0EB807A690021D8F8BC
:102900002430C7F8109003EB820ED7F81C90930088
:10291000FD610EF104021FED0C6A7B61331D15464B
:1029200056F821204808D8ED0C6ABBF1020F82F45A
:102930000002A2F5000207EE902A53F8212082F44B
:102940000002B8EEE77AA2F5000227EE067A07EE5B
:10295000902A0AEB8002F8EEE77A27EE267A67EEF5
:10296000867A82ED007A09EB80024FEA800067EEFA
:10297000A67AC2ED007A27D05EF8212082F4000208
:10298000A2F5000207EE902A55F8212082F40002F9
:10299000B8EEE77AA2F5000227EE067A07EE902A53
:1029A000DCF80820F8EEE77A024427EE267A67EE94
:1029B000867A82ED007A98ED0C7ADCF80C2067EECE
:1029C000877A0244C2ED007A02318C42A8D8D7F847
:1029D000109060466208BB694946FD699847D8F87F
:1029E0002C307A69D8ED0D6A1A441FED407A1FED3C
:1029F000406A131D9246DFF8C4C20022FB612B1D02
:102A0000AB4ED9E9008E4EE0F4EEC67AF1EE10FA44
:102A1000C0F2C580304645F822000EEB0100D0ED33
:102A2000007A66EEA77AF4EEC77AF1EE10FA49D989
:102A3000F4EEC67AF1EE10FAC0F2BF803046BBF178
:102A4000020F43F822002AD0D9F808000844D0ED3C
:102A5000007A66EEA77AF4EEC77AF1EE10FA35D96D
:102A6000F4EEC67AF1EE10FAC0F2AE8030464AF8C3
:102A70002200D9F80C000144D1ED007A66EEA77A65
:102A8000F4EEC77AF1EE10FA1ED9F4EEC67AF1EE42
:102A900010FAC0F28B803146F86940F822100232F9
:102AA00094427FF6CEAB510808EB81008900D0ED4F
:102AB000007A66EEA77AF4EEC77AF1EE10FAA3D8A0
:102AC0006046A8E76046BAE76146E5E76046CEE7BC
:102AD000224649466046BB699847FFF7B2BBC7F834
:102AE00010B0002298ED0C6A331DDFED726AD7F842
:102AF0001CB0786956F8221007EE901A53F822108D
:102B0000B8EEE77A07EE901A51080232F8EEE77A4B
:102B100027EE267A0AEB810E94420BEB810167EED9
:102B2000A67A27EE067A67EE867A8EED007AC1EDF8
:102B3000007ADFD88300D7F810B07B614DE61A46E3
:102B4000C7F810B098ED0C6A331DDFED5B6AD7F85B
:102B50001CB0786936F9221007EE101A33F92210EA
:102B600007EE901AB8EEC77A51080232F8EEE77A0B
:102B700027EE267A0AEB810E94420BEB810167EE79
:102B8000A67A27EE067A67EE867A8EED007AC1ED98
:102B9000007ADFD88300D7F810B07B6134E5F0EE1F
:102BA000675AFEEEE45A15EE900A34E7F0EE675AE3
:102BB000FEEEE45A15EE901A6EE7F0EE675AFEEE5E
:102BC000E45A15EE900A3AE7F0EE675AFEEEE45A40
:102BD00015EE900A4BE767EEA57AFDEEE77A17EE61
:102BE000900A00B232E567EEA57AFDEEE77A17EEBD
:102BF000900A00B23FE5F0EE675AFEEEE05A15EE9D
:102C0000901A4CE6F0EE675AFEEEE05A15EE900A86
:102C100030E6F0EE675AFEEEE05A15EE900AFDE55A
:102C2000F0EE675AFEEEE05A15EE900A0AE667EEFD
:102C3000A57AFDEEE77A17EE901A09B24AE567EE3B
:102C4000A57AFDEEE77A17EE900A00B22CE5F0EED9
:102C5000675AFEEEE45A15EE902A1FE467EEA57A55
:102C6000FDEEE77A17EE902A12B2FFF731BBF0EED5
:102C7000675AFEEEE45A15EE902AFFF7FDBBF0EE20
:102C8000675AFEEEE05A15EE902AFFF79BBBF0EE76
:102C9000675AFEEEE05A15EE902AFFF780BB67EE0A
:102CA000A57AFDEEE77A17EE902A12B2FFF724BB61
:102CB00082FF7F0000000030000000387E0080FFAF
:102CC00030B5184C154685B0046004F1080EEC468A
:102CD0000FC98EE80F00D4ED047AF5EEC07A8CE8C7
:102CE0000F00F1EE10FA1ADDB7EE006A94ED057AE6
:102CF00027EE277AC6EE276A84ED0D7AC4ED0C6ABA
:102D00006DB1204640F8185F01F05EFF0649036987
:102D10000020064A2162A262E36005B030BD0120B6
:102D200005B030BD7C2F01240020003000000030B1
:102D300000680830704700BFB1F5807F03680A461D
:102D400028BF4FF48072B1F5807F9A6094BF002055
:102D5000012070470068183001F096BF30B5046854
:102D600083B008480D46A368A26A216A9B000090C0
:102D700004F1180001F02AFF0020C4E9000503B0A7
:102D800030BD00BF0521000810B4074B4FF07E5145
:102D900030240022032019619C60D8605DF8044B48
:102DA0005961C3E9062270477C2F0124F6EE007AB0
:102DB0009FED166A20EE207A0160F7EE006A80ED42
:102DC000036A80ED020A27EE277AC6EE877AF4EED0
:102DD000E67AF1EE10FA11DDF0EE667A4FF07E51F0
:102DE0004FF0000C02760022C0ED017AC0F814C04A
:102DF000016143768276C0ED070A7047F4EEC67A29
:102E0000F1EE10FAEAD5F0EE467AE7E700000000AE
:102E10000268037E128807EE902AFBEEC87A1BB187
:102E2000B7EE007A77EE677AD0ED056A90ED047A16
:102E300077EEE67A437E67EE877A0BB1F1EE677A3A
:102E400090ED030A90ED017A77EEC07AA7EE270A9B
:102E500080ED030A704700BF837E80ED020AABB9A4
:102E6000D0ED077A27EE800AF6EE007AB7EE007A08
:102E700020EE270AC7EE007AF4EEC77AF1EE10FAD8
:102E800007DDF0EE477AC0ED017A7047DFED067A94
:102E9000E8E7F5EEC07AF1EE10FAF4D5DFED037A4B
:102EA000C0ED017A704700BF6F12033B00000000C5
:102EB00030B585B004460025ADF80C10ADF80820FB
:102EC000ADF8043002F0C6FFBDF80C204FF480735B
:102ED000206004F118002283BDF808206383E38397
:102EE000A283257100F046FD04F11C0000F042FDB4
:102EF0009FED060A019904F1080000F019F94FF658
:102F0000FF736562238405B030BD00BF0000000080
:102F1000F8B5044602F09EFF00262368267183421E
:102F200005D104F10800BDE8F84000F01BB9012705
:102F300094F82050206004F11800BD40277100F083
:102F4000F5FD6DB2284394F82150BD4084F820006F
:102F500004F11C0000F0EAFD94F820306DB26662C6
:102F600003F003032843022BC0B284F8210009D0E8
:102F700000F003000228D4D1002BD2D14FF0FF3350
:102F80006362CEE78307CCD16762CAE7DFED167ACA
:102F90008C46B4EE670A10B504468646F1EE10FA88
:102FA0002DED028B80ED080A48BFB0EE670AC0ED38
:102FB000090AB0EE608A80F83420BCE80F00AEE861
:102FC0000F009CE80F008EE80F0010F047FEF0EEB7
:102FD000407AB0EE480AC4ED0A7A10F03FFE84ED64
:102FE0000B0ABDEC028B10BD95BFD63390F8343080
:102FF00010B50446032B4BD8DFE803F03B2A15023B
:10300000FFF706FF60EE006AD4ED087A94ED097AC6
:1030100026EE800A37EE677AE0EE077AC4ED0C7A86
:10302000B0EE670A10BDFFF7F3FE94ED0A7AD4ED17
:103030000B7A77EEC77AA0EE277AB0EE470A10F047
:103040009BFDF0EE407A84ED0C0AB0EE670A10BDED
:10305000FFF7DEFED4ED087A94ED097A20EE000A3F
:1030600037EE677AE0EE077AB0EE670AC4ED0C7AC5
:1030700010BDFFF7CDFED4ED087A94ED097A37EE56
:10308000677AE0EE077AB0EE670AC4ED0C7A10BDFD
:10309000D0ED0C7AC4E700BF30B585B004469FED93
:1030A000110A9DF82050ADF80C100399ADF80820D6
:1030B0002A46ADF804308DED000A0DF035FC9DED8B
:1030C000000A2A46029904F11C000DF02DFC9DED2A
:1030D000000A2A46019904F1380005B0BDE83040E5
:1030E0000DF022BC00007A4438B50C46054691ED3F
:1030F000000A0DF03DFC94ED010A05F11C000DF0F5
:1031000037FC94ED020A05F13800BDE838400DF0B7
:103110002FBC00BF10B504460DF03CFC04F11C00B0
:103120000DF038FC04F13800BDE810400DF032BC61
:1031300070B5044682B0C1F30726CDB2ADF80410D5
:1031400002F088FE4FF480724FF001232060A01D32
:10315000A571A280E671A36002B0BDE8704000F0E6
:1031600009BC00BF38B5044602F074FE0022236893
:103170002271834210D00122A57AE37A9540206023
:103180002271A01D6DB243B900F0D0FC40B22843BB
:10319000C0B27F28A0720AD038BD00F0C7FCB0FAD8
:1031A00080F040092843C0B27F28A072F4D102F019
:1031B00051FE07EE900AF8EE677AC4ED037A38BD47
:1031C000704700BF254A937803B970470B68002BFE
:1031D000FBD04FF0000C70B56546A3EB0C04032C3C
:1031E00034D910F80C60844416F00E0F06F00F046A
:1031F0002CD00F2C2AD0144494F8104834B3013C3E
:103200000CF1010E5EFA84FED2F80434D2F80844C0
:10321000013B1B1BC3F30903F3B11CF8016FD2F888
:103220000434D2F80844013B1B1BC3F30903002BF1
:10323000F5D0D2F80834F44503F101041344C4F383
:1032400009041E71C2F80844DED10B680435ADB222
:103250009D42AC46C1D370BD9370F6E7B42F0124F4
:103260004FF0010CCAB20F4BA2EB0C02B2FA82F281
:1032700010B552090C4C82B00460204661701146B2
:1032800083F800C001920DF0ABFB00230A20A3706D
:1032900002F0E2FD019A2046044902B0BDE8104068
:1032A0000DF024BC2C6B0124B42F0124C53100087F
:1032B000012203689A7070470368D3F80804D3F8B2
:1032C0000434C01AC0F30900704700BF0268D2F886
:1032D0000834D2F804145B1AC3F30903002BF6D0A8
:1032E000D2F80434D1180133C3F309030879C2F8C2
:1032F0000434704703689878704700BF0368D3F8B8
:103300000424C3F80824704710B5104B104C03F187
:10331000100E04F5016C0FCB8CE80F009EE80F0037
:1033200004F5026C8CE80F000A484FF60F010723E2
:10333000094AC4F830082046A4F8341884F836380E
:103340000649BDE8104010F011BC00BFA8550108A7
:10335000B42F012480707FF000000024C1310008E8
:1033600082B04FF0000C0323ADF80410BDF8042028
:1033700080F810C00280438002B070472DE9F04F02
:10338000BE4E00258FB0BE4C037006F14003426074
:10339000074601928846202229463046C4F8583113
:1033A000C4F85461CDE90355CDE90555CDE907557C
:1033B000CDE90955CDE90B5511F0AAF8202229468F
:1033C00004F59970C4F82151C4F82551C4F8295165
:1033D000C4F82D5111F09CF8019B84F8385284F800
:1033E00020317A68002A5FD02B464146B64604F564
:1033F000907599464FF0010A03EB0310D1F800B025
:10340000D1F804800133D1F808C02218CE6844F8FE
:1034100000B0C2F80480C2F808C0D660087C2EF85C
:10342000029B10740A7C05F8012F002A69D07A6883
:10343000113184F838A29A42DED84FF480229148A4
:103440009DF8043008214FF000084FF00009C4F83F
:1034500074310023C4E957020122C4F8643184F8AE
:103460007031C4E95A2194F83812C4E9608981B3F3
:10347000C4F88821002284F8713184F878313B78CF
:10348000C4E96322A3B3012200200121013B84F897
:103490009421C4E96801082B2CD8DFE803F0ABB015
:1034A000B5BABFC4C9CFD6009DF804300121C4F815
:1034B0006421C4F874314FF4802384F87021714A78
:1034C000C4E9572308230022C4E95A130023C4E99E
:1034D00060230123002284F87131002384F87831BD
:1034E0000323C4F888313B78C4E96322002BCAD196
:1034F00084F89431644803F047FE034638B1FFBEB8
:10350000FEE77A6811319A423FF676AF95E703A954
:103510005D48039303F096FF0546002868D1022218
:1035200040F2FF73CDE9082300230422CDE90A23EA
:1035300094F82031002B00F0D5804FF0060921E0EF
:10354000022B00F08980012B40F0C4809AF80130F2
:10355000012B00F0C180002B4C4B18BF002306A9A3
:103560004948CDE9063903F03BFA002840F0BF8016
:10357000013594F82031EDB2AB4240F2B380444BB8
:1035800053F825902FB207EB071704EB070A5046B4
:1035900000F0F0F905EB051323441B7C042B7DDCC4
:1035A000022B00F3918000F08D806319002283F8D4
:1035B0001021E35D002BC3D19AF80130062B00F0F7
:1035C0008580072B00F08A80022B00F09680032B69
:1035D00000F09580002B00F09680012B00F0918088
:1035E000042B00F09280052B2A4B18BF0023B6E76E
:1035F000FFBEFEE703224023C4E966237AE70722E1
:103600006023C4E9662375E70F228023C4E966239B
:1036100070E71F22A023C4E966236BE73F22C02383
:10362000C4E9662366E77F22E023C4E9662361E7F5
:10363000FF224FF48073C4E966235BE740F2FF1278
:103640004FF49073C4E9662354E740F2FF324FF41D
:10365000A073C4E966234DE79AF80130042B37D0F4
:10366000052B3DD0002B40D0012B42D0022B42D065
:10367000032B094B18BF002371E700BF0040003047
:10368000F0370124002002404C3901240002B0250B
:10369000485601080000B84F0020903603233E1D15
:1036A00004EB05084FF0000B264488F81031304633
:1036B0000BF1010B00F05EF998F8103104365B4510
:1036C000F5DC76E70123EAE70223E8E7104B46E75B
:1036D000104B44E7002342E70F4B40E70F4B3EE718
:1036E0000F4B3CE70FB0BDE8F08F0E4B37E7FFBE46
:1036F000FEE70D4B33E70D4B31E70D4B2FE70D4B3D
:103700002DE70D4B2BE70D4B29E70D4B27E700BFAE
:103710000800900C1000C0102000F0148000501D14
:10372000000180210004002A0008302E00106032C1
:103730000040C03A0080F03E0000524700002143A4
:103740000000844B38B5094C40F2FF724FF0011174
:1037500004F5AE75284603F023FE94F82021D4F832
:1037600054112846BDE8384003F08EBBF0370124E1
:10377000034B0F29D3F8540198BF00EB4100704769
:10378000F0370124214B02689A4200D07047204A4A
:1037900000232048D2F8D81030B51F4C41F020014A
:1037A00083B0C4F8C001092004F5E075C4E97103D1
:1037B0004FF48060C2F8D810D2F8D8204FF40061DE
:1037C000C4E9733094F8380202F02002C4F8D4112E
:1037D0004FF40051984201922846C4F8D811C4E928
:1037E0007833019B14BF00234FF48073C4F8DC319D
:1037F00004F04EF808B1FFBEFEE704F5AE73C4F85E
:10380000A851C4F8F83103B030BD00BF0020024019
:103810000044025840000240F0370124014804F0FF
:10382000AFBB00BFB039012402682DE9F84F4B4B04
:103830009A4201D0BDE8F88F494D95F83832002BF7
:10384000F8D095F82031002B77D0002405F10C0931
:1038500005F5997605F59077A04613E003F0010190
:1038600017F811BCA9F1080000F06EF9BBF1010FC7
:1038700025D895F82031013409F111090236A2B298
:1038800093422BD917F8012F002AF4D0D5F85431E0
:103890000021327833F81400D5F8583103EB0413C3
:1038A00023F81200338801339BB233805FFA83FA26
:1038B0003A789A42D2D88A46A6F80080D0E7CAF36E
:1038C0004001A9F1040000F03FF9BBF1020FCAF377
:1038D0008001CED0484600F037F9CAE7002395F8BA
:1038E0003802204909229842C5F8C8314FF4806057
:1038F000C5F8C011C5F8C4214FF400614FF400525F
:10390000C5F8CC3108BF4FF48073C5F8D821C5E99C
:10391000740100221448C5E97732C5F8E42103F0A8
:10392000B7FF08B1FFBEFEE795F82021D5F8541186
:103930000E48BDE8F84F03F0A7BA0A4909224FF430
:103940008060C5F8C831C5E970124FF400614FF4CA
:103950000052C5E97330C5E97512DAE7002002406C
:10396000F037012440000240B03901244C390124D1
:10397000704700BF8378022B30B504468FB037D034
:10398000032B33D0012B31D000230A93E378012B92
:103990002AD0022B28D000230B93002320460C931F
:1039A00002F098FE0546204602F09CFE237809901E
:1039B000082B13D8DFE803F01F3245586B7E91A423
:1039C0000500594BD3F8E02042F48072C3F8E020A0
:1039D000D3F8E03003F480730893089B09A92846C4
:1039E00004F020FE0FB030BD0B93D6E70A93CDE76D
:1039F00011230A93CAE74C4B09A92846D3F8E020C3
:103A000042F00102C3F8E020D3F8E03003F00103F4
:103A10000093009B04F006FE0FB030BD424B09A995
:103A20002846D3F8E02042F00202C3F8E020D3F8A1
:103A3000E03003F002030193019B04F0F3FD0FB0AB
:103A400030BD394B09A92846D3F8E02042F00402E2
:103A5000C3F8E020D3F8E03003F004030293029BA4
:103A600004F0E0FD0FB030BD2F4B09A92846D3F874
:103A7000E02042F00802C3F8E020D3F8E03003F081
:103A800008030393039B04F0CDFD0FB030BD264B1C
:103A900009A92846D3F8E02042F01002C3F8E0203C
:103AA000D3F8E03003F010030493049B04F0BAFD54
:103AB0000FB030BD1C4B09A92846D3F8E02042F0D6
:103AC0002002C3F8E020D3F8E03003F02003059390
:103AD000059B04F0A7FD0FB030BD134B09A9284684
:103AE000D3F8E02042F04002C3F8E020D3F8E03001
:103AF00003F040030693069B04F094FD0FB030BD25
:103B0000094B09A92846D3F8E02042F08002C3F807
:103B1000E020D3F8E03003F080030793079B04F024
:103B200081FD0FB030BD00BF0044025838B50546D6
:103B300002F0D0FD0446284602F0D4FD014620469E
:103B4000BDE8384004F076BF70B506460D4602F079
:103B5000C1FD0446304602F0C5FD2A1E014620463E
:103B600018BF0122BDE8704004F06ABF0023122292
:103B700070B586B0CDE9022304930368032B01D806
:103B800004230593061D841D304602F0A3FD05465F
:103B9000304602F0A7FD034601A92846019304F030
:103BA00041FD204602F096FD034620461C4602F0E9
:103BB00099FD01A903462046019304F033FD06B0A8
:103BC00070BD00BF634A0368934210B58CB028D023
:103BD000614A934258D0614A934200F09480604A0F
:103BE000934201D00CB010BD5E4C5F48D4F8E03079
:103BF00043F00203C4F8E030D4F8E03003F00203ED
:103C00000A930A9BFFF7B2FFD4F8F43043F0800325
:103C1000C4F8F430D4F8F43003F080030B930B9B1A
:103C2000E0E7504C5148D4F8E03043F00203C4F8C8
:103C3000E030D4F8E03003F002030193019BFFF77A
:103C400095FFD4F8E83000221F2043F400131146FA
:103C5000C4F8E830D4F8E83003F400130293029B70
:103C6000D4F8D83043F00103C4F8D830D4F8D830B1
:103C700003F001030393039B03F058FC1F200CB0D7
:103C8000BDE8104003F090BC364C3948D4F8E03021
:103C900043F08003C4F8E030D4F8E03003F0800350
:103CA0000493049BD4F8E03043F00203C4F8E030FE
:103CB000D4F8E03003F002030593059BFFF756FFAD
:103CC000D4F8E8300022212043F480031146C4F8E0
:103CD000E830D4F8E83003F480030693069BD4F868
:103CE000D83043F00103C4F8D830D4F8D83003F00A
:103CF00001030793079B03F019FC21200CB0BDE8DA
:103D0000104003F051BC1B48FFF730FF154B002259
:103D10004820D3F8E840114644F40004C3F8E840D2
:103D2000D3F8E84004F400040894089CD3F8D84081
:103D300044F00104C3F8D840D3F8D83003F00103AD
:103D40000993099B03F0F2FB48200CB0BDE810403A
:103D500003F02ABC0054004000580040005C0040C2
:103D6000001C005800440258B83C0124303A012499
:103D7000083B0124E03B01242DE9F0431A4B87B0B6
:103D800000254FF010099E46EC46184BFF22E046F6
:103D900067461A700EF118060EF13004CDE9005591
:103DA000CDE90255ADF80090BCE80F00CDE904550F
:103DB000AEE80F009CE803000095ADF800908EE897
:103DC0000300B8E80F000FC69CE803000095ADF8AB
:103DD000009086E803000FCF0FC49CE8030084E83E
:103DE000030007B0BDE8F083080000242C3A01244A
:103DF00010B5EFF3108472B6084B1A78120602D58C
:103E000004B962B610BD1B78D82205485BB202FB2C
:103E10000300143004F0B4F8F2E700BF2C3A012498
:103E2000303A0124014805F0A3BC00BFBC3A01248C
:103E3000014805F09DBC00BF943B0124014805F0FA
:103E400097BC00BF6C3C01242DE9F0430F68D824D7
:103E50003F4D85B007FB04F4032F05EB040303601B
:103E600040DCCB680E46012B3CD84DD04FF0D80833
:103E7000B646DFF8FC9008FB0758BEE80F00C446C2
:103E8000ACE80F00DEF800300DF1100ECCF8003079
:103E9000D8F808C099E80F000EE90F000EEB870371
:103EA000BCF1010F53F8103CC8F88C3031D0BCF194
:103EB000020F42D0BCF1000F35D0317C8C34D823B6
:103EC000002201202C4403FB07534900C3E92602CA
:103ED000C3F894102046C3E92822C3E92A2205F03A
:103EE00039FA18B1012005B0BDE8F083014620463B
:103EF00005F04AFC0028F5D10146204605F06EFC8D
:103F0000003818BF0120EEE70B7C103B672BADD9C2
:103F1000E8E702F00DF90F4B98420CBF0E4B0F4B28
:103F2000C8F89030C9E702F003F90A4B98420CBF79
:103F30000B4B0C4BC8F89030BFE702F0F9F8054B7B
:103F400098420CBF084B094BC8F89030B5E700BF4A
:103F5000303A0124000E27072D0FB0303211D02047
:103F60005F4390608A62E030200BA0101A09801035
:103F7000C85501082DE9F041D0F8008082B00D4607
:103F800017461E4608F18C04204605F0F9FB202850
:103F9000FAD1D8F80C3073B96D002046089C33462E
:103FA0003A46A9B2009405F02BFA003818BF012058
:103FB00002B0BDE8F081089B32463946204605F044
:103FC000F3FAF2E7044B10221A7483F8E82083F81E
:103FD000C02183F898227047303A012430B500237D
:103FE00095B04FF48071062204460B93069213930A
:103FF000CDE90C13CDE90E33CDE9113302F09AF877
:1040000007282BD004F1100541F2883206A9284672
:1040100006F036FB28B10123184684F85C3015B051
:1040200030BD0222022306A92846CDE90023102232
:104030000123CDE9022300224FF48003CDE90423BC
:1040400005224FF0807306926A460F9341F288333F
:1040500006F082FC0028DED115B030BD032301201C
:1040600084F85C3015B030BD70B50023A4B04FF0BB
:1040700080724FF480750446ADF806300D93CDE99B
:1040800010320122CDE90E53CDE91223CDE91433CC
:10409000002943D0F02300F1100508AEADF806303A
:1040A000C02341F2883231462846089306F0E8FAE8
:1040B00028B10123184684F85C3024B070BD41F269
:1040C00088320DF10601284606F044FB034600281D
:1040D000EFD105224FF480711E93284616924FF0BF
:1040E00080721B9321931F9202AA9FED1F7BCDE943
:1040F0001C13CDE922338DED027B9FED1D7B41F238
:10410000883316A98DED047B9FED1B7B8DED067B1F
:1041100006F022FC0028CCD124B070BD00F11005BF
:1041200008AE612341F2883231462846089306F0F2
:10413000A7FA0028BDD141F288320DF106012846C8
:1041400006F086FB0028B4D1BDF80630204623F0E7
:10415000780343F04003ADF80630FFF73FFF002837
:104160009ED0A6E7AFF30080000000000100000031
:1041700010000000010000000000000000004000EE
:104180002DE9F04F00234FF4807501264FF0807821
:1041900004462DED028BABB08DF8073013932193BD
:1041A000299314950E96CDF85C80CDE91533CDE9B1
:1041B0001863CDE91A33CDE92253CDE92433CDE993
:1041C000273306231C9301F0B5FF072808D004F11C
:1041D000100741F288321CA9384606F051FA40B166
:1041E0000123184684F85C302BB0BDEC028BBDE88F
:1041F000F08F4FF0020A4FF0020B4FF0050941F229
:10420000883308AA1CA93846CDF89480CDF8709060
:104210009FED2D8BCDE908AB4FF0000A4FF4800BDA
:104220008DED0A8BCDE90CAB06F096FB0028D7D1BB
:1042300041F2883238460EA906F022FA0028CFD182
:10424000402341F288320DF1070138468DF80730DE
:1042500006F080FA0028C3D141F288330EA902AAE1
:104260003846CDF83890CDF85C809FED197B8DED08
:10427000048BCDE906AB8DED027B06F06DFB0346AA
:104280000028ADD1CDF870904FF00109CDF89480A1
:104290004FF00008219308AA29931CA938462295BB
:1042A000CDE92333CDE9273341F288338DED0A8BF5
:1042B000CDE90CABCDE9088906F04EFB002893D080
:1042C000304684F85C608FE71000000001000000B9
:1042D00040000000400000002DE9F043624CA3B014
:1042E0000D46046001F026FF072800F0A980286829
:1042F00023466968AA6807C31E46AB8926F8043BB3
:104300003046257B677B06F09DF9E0B9574B012DC0
:104310004FF00108E061236114BF4FF480134FF4A4
:104320000003C4E9058893FAA3F3B3FA83F34FF4C7
:104330008079013BC4F82490C4E90B003046236225
:1043400006F014F938B10122134684F85C201846AF
:1043500023B0BDE8F08366230B90139041F28832BE
:1043600006A90693CDE90C90CDE90E00CDE9110028
:10437000304606F085F90028E5D1992341F28832CC
:1043800006A93046069306F07BF90028DBD1052309
:104390001C9019906A4614934FF08073219014A9D1
:1043A0001D9341F288339FED2A7BCDE91A90CDE928
:1043B0001F008DED007B9FED287B30468DED027B4D
:1043C0009FED277B8DED047B06F0C6FA0028BAD15D
:1043D00029462046FFF748FE0028B4D12046FFF7C3
:1043E000CFFE03460028AED1002FB0D1189330463F
:1043F0000027002606AA14A9CDF86890CDE91F333E
:10440000EB2314934FF440631B934FF40053179323
:104410004FF440431C93A0231693062319934FF0A7
:10442000805321934FF04073CDE906671D9306F04A
:104430000BFB034600288AD0434684F85C8086E75D
:1044400001230322184684F85C2023B0BDE8F083E2
:10445000000000000100000010000000010000004A
:104460000000000000004000903D01240050005278
:104470002DE9F04F8FB0414B0024026800AF9A4203
:104480007C63C7E90944C7E90B4403D03C37BD4608
:10449000BDE8F08F3A4B40F609213A48EB46D3F895
:1044A000D42007F11C0607F1220A4FF0020942F45A
:1044B00080424FF00308C3F8D420D3F8D42002F48C
:1044C0008042BA60BA68D3F8E02042F04002C3F8F4
:1044D000E020D3F8E02002F04002FA60FA68D3F856
:1044E000E02042F02002C3F8E020D3F8E02002F000
:1044F00020023A613A69D3F8E02042F01002C3F892
:10450000E020D3F8E02002F010027A617A69D3F853
:10451000E02042F00202C3F8E020D3F8E030F86176
:1045200003F002033984BB61174B7B60BB697B6876
:1045300053F8040F7B6002F0CDF87B6805461868DD
:1045400002F0D0F816F8013B786207F12401284602
:10455000C7F830807B63C7E90A9404F063F85645D6
:10456000E5D100225C20114602F0E0FF5C2003F060
:104570001BF83C37DD46BD46BDE8F08F00500052C9
:10458000004402580A0A0909EC3D0124114B026853
:104590009A4200D07047104A70B5D2F8D4300F4C10
:1045A00023F4804304F11806C2F8D43054F8040F01
:1045B00002F090F80546206802F094F8014628467B
:1045C00004F070F9B442F1D15C20BDE8704002F013
:1045D000F9BF00BF0050005200440258EC3D0124D6
:1045E000014806F0BDBA00BFA03D0124084B1A1DCA
:1045F000981D03F1080110B49C1C9A6603F10A028D
:10460000C3E91834C3E91B015DF8044B5A677047CE
:10461000903D012438B5036871B9026A00F128059C
:1046200000F5AC74012A0CBF002140218BBB1D4B4F
:104630005722C0F858310DE0426A00F1C00500F57C
:10464000E874012A0CBF00214021EBB1164B5A221D
:10465000C0F8D03100232046C4E901214FF4805234
:104660004FF48061636262614FF48042C4E90331B8
:104670004FF48073C4E906234FF40033236203F040
:1046800007F958B1FFBEFEE7084B5822C0F8D031F9
:10469000E0E7074B5922C0F85831DBE7C5E9204471
:1046A000A56338BD1000024070000240280002409F
:1046B000580002402DE9F043821D05468BB0031DD2
:1046C00005F10A010830CDE9052305F10C02AB69BB
:1046D000CDE907010992002B3DD0EB69B3FA83F8CD
:1046E0004FEA58180123022205AE0AAF4FF006091F
:1046F0000393CDE9012356F8044B2B79227893429A
:1047000016D02B68F3B1012B02D1F2B10A23049326
:10471000204601F0E7FF03462046009301F0DAFF50
:10472000694603F07FFFBE42E5D10BB0BDE8F083E0
:10473000697963789942E4D1B8F1000FF3D02B681E
:10474000002BE0D1CDF81090E2E76378022B14BF84
:104750000A230823DBE74FF00108C3E7534A036845
:10476000934230B505468BB055D02032934252D09B
:104770004F4A934204D02032934201D00BB030BD57
:104780004C4C4D48D4F8E03043F00103C4F8E0301D
:10479000D4F8E03003F001030593059BD4F8E03032
:1047A00043F00803C4F8E030D4F8E03003F0080325
:1047B0000693069BD4F8E03043F04003C4F8E030A1
:1047C000D4F8E03003F040030793079BD4F8F030AF
:1047D00043F40003C4F8F030D4F8F03003F40003DD
:1047E0000893089BFFF766FFD4F8D830296843F098
:1047F00001032F4A3048C4F8D830891AD4F8D83089
:1048000018BF012103F001030993099B0BB0BDE818
:104810003040FFF7FFBE274C2848D4F8E03043F083
:104820000103C4F8E030D4F8E03003F00103009352
:10483000009BD4F8E03043F01003C4F8E030D4F823
:10484000E03003F010030193019BD4F8E03043F013
:104850004003C4F8E030D4F8E03003F040030293A2
:10486000029BD4F8F03043F48003C4F8F030D4F85D
:10487000F03003F480030393039BFFF71BFFD4F88E
:10488000D830296843F00103084A0C48C4F8D830EE
:10489000891AD4F8D83018BF012103F0010304931A
:1048A000049B0BB0BDE83040FFF7B4BE0458014094
:1048B000045C01400044025864400124083E012485
:1048C000014803F05DBB00BF603F0124014803F0D5
:1048D00057BB00BFD83F0124014803F051BB00BFC4
:1048E000BC410124014803F04BBB00BF344201240A
:1048F0001A4A0368934210B40BD02032934208D076
:10490000174A934216D02032934213D05DF8044BDD
:104910007047144B0022D3F85442C3F85822002C9D
:10492000F4D0D3F84802D3E9931223465DF8044B40
:10493000520818470B4B0022D3F8B044C3F8B424F4
:10494000002CE3D0D3F8AC24D3F8A814D3F8A404F3
:10495000520823465DF8044B184700BF0458014035
:10496000045C0140083E0124184A0368934210B4D5
:104970000BD02032934208D0154A934217D02032F0
:10498000934214D05DF8044B7047124BD3E9942442
:104990005208C3F85822002CF4D0D3E992012346E0
:1049A00001EB820100EB82005DF8044B1847094BD4
:1049B000D3F8AC24D3F8B0445208C3F8B424002C84
:1049C000E0D0D3F8A814D3F8A404E8E704580140D1
:1049D000045C0140083E01242DE9F04F0C684FF4BF
:1049E0001776754F87B004FB06F6012C07EB060A15
:1049F000C0F800A000F3A0800D468E464FF00008DE
:104A0000D44669A3D3E9002369A1D1E90001CDE926
:104A1000022306ABCAF8508203EB8403CDE90401FC
:104A200053F810BC53F8083CCAE992880193BEE8D9
:104A30000F00ACE80F00BEE80F00ACE80F00019BD0
:104A40009EE80300CAF828B0CAF8C0308CE803001A
:104A50002B69042B0CD8DFE803F0737D87910300EA
:104A60004FF41773554A03FB04739A64C3F8E020AC
:104A7000AA692B6A002A43D0002B4FF4177308BF92
:104A8000022203FB047318BF0322DA6201221A63B5
:104A9000EA696B6A002A40D1191E4FF4177318BFD8
:104AA000012103FB0473C3E931126B69022B05D8A2
:104AB000434A12F80380434A52F823904FF4177385
:104AC00006F128004246494603FB0474002338449B
:104AD00063646363E365C4F8DC30C4F8CC30C4F8C5
:104AE000F430C4E90F33C4E91533C4E93533C4E9FC
:104AF0003B33022308F0D6F8002849D0FFBEFEE77A
:104B0000191E4FF4177318BF012103FB0473C3E987
:104B10000B12EA696B6A002ABED0002B4FF41773A0
:104B200008BF022203FB047318BF0322C3F8C4208A
:104B30000122C3F8C820B8E7012007B0BDE8F08F14
:104B40004FF417734FF4FA5203FB04739A64C3F8DB
:104B5000E0208DE74FF417734FF47A5203FB047390
:104B60009A64C3F8E02083E74FF417734FF4FA42D6
:104B700003FB04739A64C3F8E02079E74FF41773DA
:104B80004BF6803203FB04739A64C3F8E0206FE7AE
:104B900006F1C000022342464946384408F082F834
:104BA0000028CAD0FFBEFEE704580140045C014063
:104BB00024580140245C0140083E01240077010094
:104BC000885601088C5601080068704770B5046863
:104BD00082B015460E46C4F85032C4E99212069AC5
:104BE000C4F85422A269012A26D0626A012A9AB224
:104BF00011D0294604F1C000019208F00FF9236A90
:104C0000019A012B10D0294604F1280008F006F97A
:104C1000002002B070BD04F1C000019208F090F9CC
:104C2000236A019A012BEED1314604F1280008F0E5
:104C300087F9002002B070BD226A012A9AB211D011
:104C4000294604F12800019208F0E8F8636A019A05
:104C5000012B10D0294604F1C00008F0DFF8002035
:104C600002B070BD04F12800019208F069F9636A8E
:104C7000019A012BEED1314604F1C00008F060F931
:104C8000002002B070BD00BF03681B69042B05D86B
:104C9000044A02EB830393ED000A70479FED020A7A
:104CA000704700BF9856010800803B470368D3F85F
:104CB0005802704770B50446554800234FF480658C
:104CC000C4F8A8004020C4F8CC301646C4F8280127
:104CD00094F89801C4F8B0300028C4F82C31C4F816
:104CE0003C3114BF4FF480700020C4F84431C4F844
:104CF000C4004FF44030C4F83051C4F8C800C4F8C0
:104D000040014448C4E92D35C4E92F33C4E94D338B
:104D10006368C4F82001072B0BD8DFE803F03A439F
:104D20004C555E67700451225223C4F8AC20C4F87D
:104D3000243181B9BEB994F8983153B1D4F8A81090
:104D4000E2690B6823F008030B60136843F010035B
:104D50001360002070BD04F1A805284602F098FDFC
:104D600048B1FFBEFEE704F59075284602F090FDBD
:104D700040B1FFBEFEE704F11C03C4F89450C4F830
:104D8000E030D7E704F11C03C4F89050C4F8583160
:104D9000D1E729222A23C4F8AC20C4F82431002901
:104DA000C8D0D8E72B222C23C4F8AC20C4F8243177
:104DB0000029BFD0CFE72D222E23C4F8AC20C4F8A1
:104DC00024310029B6D0C6E73F224023C4F8AC20E6
:104DD000C4F824310029ADD0BDE741224223C4F8F4
:104DE000AC20C4F824310029A4D0B4E747224823DA
:104DF000C4F8AC20C4F8243100299BD0ABE74F2283
:104E00005023C4F8AC20C4F82431002992D0A2E782
:104E10008800024070040240D0F894301B682DE9ED
:104E2000F0415968C0B0D0F89C5106464942D0F8CC
:104E3000A842D5F80031C9B2D5F80421013B0C1BBA
:104E40009B1AD5F80421E4B2DBB2A34294BFD21876
:104E50001219C5F80421D5F80431B3F5807F05D9BE
:104E6000D5F80431A3F58073C5F80431C6F8A8124B
:104E7000D5F80021A718B7F5807F23D9C2F580782F
:104E8000A918D2F5807222D1444502D0B4EB0802B1
:104E90002CD1FFB206F5D078C5F80071D6F8A4027F
:104EA0002518B5F5807F8CBFC0F5807727461FBBDE
:104EB000BC4201D0E21B0ED1EDB2C6F8A45240B004
:104EC000BDE8F081A9182246002CE2D0A046684631
:104ED0000FF010FBD8E70DEB0701EDB240460FF0E5
:104EE00009FBC6F8A45240B0BDE8F0810DEB080004
:104EF00029460FF0FFFACCE740443A4669460FF0E6
:104F0000F9FAD5E72DE9F047DFF8FC8006460F46B1
:104F1000154698F800301B061AD44068EFF310824B
:104F200072B6354BC0EBC00C002443F82C1003EBD9
:104F30008C034FF480715D61198130495C60DC60E5
:104F40009C6119610AB962B614462046BDE8F08733
:104F500000F11C09484608F081FB2028FAD1002204
:104F600001213046FFF7A6FE044690BBEFF3108AFE
:104F700072B696F904303946214E4846214F4FF417
:104F8000807288F800301D4B35603B6008F0A0F956
:104F900030B9BAF1000FD8D162B62046BDE8F0872B
:104FA000FF2328463C603460012488F80030FFF776
:104FB00033FF05F11C0009F04DFE2A46D5F89C117F
:104FC000284685F89841FFF79DFFBAF1000FBCD144
:104FD000E2E728460124FFF71FFF05F11C0009F056
:104FE00039FE2A46D5F89C11284685F89841FFF7E6
:104FF00089FF2046BDE8F087500000240D500008CE
:10500000D45A0124CC5A0124D05A0124012900D9B0
:10501000704710B50446FFF7FFFE04F11C0009F0CD
:1050200019FE01232246D4F89C11204684F89831B9
:10503000BDE81040FFF766BF2DE9F04F814683B011
:105040000E4617461D4600F11C04204608F006FBDC
:105050002028FAD1012200214846FFF72BFE804686
:10506000002835D1EFF31083019372B6DFF888B0D2
:105070000C9B99F90420DFF884A0DFF88490CBF82A
:1050800000300D9B89F80020CAF800300DB1184699
:10509000A847BAB23146204608F0C8F830B9019B9B
:1050A00003B962B6404603B0BDE8F08F0023CBF8E9
:1050B0000030CAF80030FF2389F800300C9B8BB118
:1050C00001210D9888469847019B002BEAD1E8E71B
:1050D0000C9B53B101210D9888469847404603B078
:1050E000BDE8F08F4FF00108D9E74FF001084046C6
:1050F00003B0BDE8F08F00BFCC5A0124D45A01247C
:10510000D05A01242DE9F04F814683B00E46174650
:105110001D4600F11C04204608F0A0FA2028FAD110
:10512000002201214846FFF7C5FD8046002835D101
:10513000EFF31083019372B6DFF888B00C9B99F9F6
:105140000420DFF884A0DFF88490CBF800300D9BBA
:1051500089F80020CAF800300DB11846A847BAB245
:105160003146204608F0B4F830B9019B03B962B665
:10517000404603B0BDE8F08F0023CBF80030CAF8FA
:105180000030FF2389F800300C9B8BB101210D9872
:1051900088469847019B002BEAD1E8E70C9B53B166
:1051A00001210D9888469847404603B0BDE8F08F2E
:1051B0004FF00108D9E74FF00108404603B0BDE8C1
:1051C000F08F00BFCC5A0124D45A0124D05A0124B4
:1051D0002DE9F0410D4682B0EFF3108772B6002939
:1051E00048D1FF23254A264C237013682BB1002099
:1051F00029461060234A1068984723781B0625D556
:10520000DFF888800025204E444605E001351C3437
:1052100006F52B76092D19D0A369012B1BD0002B85
:10522000F4D1216830460029F0D0636901932369E5
:105230000093E3682289FFF765FF0028E6D1C5EBFC
:10524000C50508EB850348F82500586007B962B624
:1052500002B0BDE8F08161680029D7D063693046AB
:10526000019323690093E3682289FFF7E5FE002894
:10527000CCD1E4E709F0EEFCB3E700BFCC5A01243F
:10528000D05A0124D45A0124C042012450000024E1
:10529000F0B5002387B0022204460493CDE902232F
:1052A000027843680B2A4FEA430523D1A2780B2AE0
:1052B00002D1002007B0F0BD47496B1C474851F8A8
:1052C0002330457801781878E678884267D08242A2
:1052D00075D0D87803F1030C81426CD0824276D02D
:1052E000987903F1060C88426DD0824231D00120BA
:1052F00007B0F0BD384B394853F82530017846786F
:10530000187894F801C081423BD082423FD0D878CF
:1053100003F1030E81423ED0824248D0987903F1D6
:10532000060E88423FD08242E1D1DB796345DED16F
:1053300073469B782046059301F0CCF9064620463B
:1053400001F0D0F9034601A93046019303F06AF950
:10535000ACE7DB79B342CAD1634602349B7820467E
:10536000059301F0B7F9034620461C4601F0BAF94F
:10537000034601A92046019303F054F9002007B029
:10538000F0BD93F801E0B645C1D08242BFD1587854
:105390006045BCD1CDE71F79B742BDD1BEE75F788C
:1053A000AF4294D195E7D979B142BCD19FE7187942
:1053B0006045B3D1BCE71F79AF428FD190E75878F1
:1053C000B04286D1C9E7D979A9428ED18FE7187941
:1053D000B04285D1C0E700BF680100246401002409
:1053E0007E4A03689342F0B58FB000F0E480A2F5E6
:1053F0004C42934200F0E18002F58062934200F05B
:10540000DE8002F58062934200F0DB8002F580626C
:10541000934200F0DA8002F54442934200F0D380D8
:10542000A2F51C42934200F0D28002F580629342C2
:1054300000F0CF806A4A934240F0CD8008264FF4B6
:105440002B77684C06FB07F7E519A87801F052F9AD
:10545000E05D01F04FF96B68082B13D8DFE803F02B
:105460003B49576573818F9D05005F4BD3F8F4204E
:1054700042F00802C3F8F420D3F8F43003F0080334
:105480000893089B2846FFF703FF012801D1FFBEC0
:10549000FEE74FF42B730EAA544F0DF1240C03FBBF
:1054A0000644636802EB43050FCFACE80F003B688E
:1054B0000022ACF80030114635F9140C02F036F831
:1054C00063680EAA02EB430333F9140C0FB0BDE876
:1054D000F04002F069B8444BD3F8F02042F01002DB
:1054E000C3F8F020D3F8F03003F010030093009BD2
:1054F000C8E73D4BD3F8E82042F40032C3F8E82077
:10550000D3F8E83003F400330193019BBAE7364B3C
:10551000D3F8E82042F48022C3F8E820D3F8E8303A
:1055200003F480230293029BACE72F4BD3F8E820CF
:1055300042F40022C3F8E820D3F8E83003F4002353
:105540000393039B9EE7284BD3F8E82042F4801294
:10555000C3F8E820D3F8E83003F480130493049BE5
:1055600090E7214BD3F8F02042F02002C3F8F0205E
:10557000D3F8F03003F020030593059B82E71A4B24
:10558000D3F8E82042F08042C3F8E820D3F8E830AE
:1055900003F080430693069B74E7134BD3F8E8208F
:1055A00042F00042C3F8E820D3F8E83003F00043AB
:1055B0000793079B66E7002641E701263FE702269F
:1055C0003DE703263BE7052639E7042637E70626AD
:1055D00035E7072633E700239B78FFDE0010014004
:1055E000000C0058C042012400440258D85501085C
:1055F0002DE9F04F91B0002301223A490DF1240A20
:1056000009938B4601F11C09CAF814305446CDF8B1
:1056100000A001F13808CDF804A001F15407CDF83D
:1056200008A001F17006CDF80CA001F18C05CDF8B1
:1056300014A001F1C40E01F1E00CCAE90133CAE97A
:1056400003330F92FF22284B1A7001F1A803CDE912
:1056500006AA0493BAE80F00ABE80F009AE8070027
:105660008BE807000FCC009CA9E80F009AE8070020
:1056700089E807000FCC019CA8E80F009AE8070012
:1056800088E807000FCC029C0FC79AE8070087E85C
:1056900007000FCC039C0FC69AE8070086E80700B6
:1056A0000FCC0FC59AE80700059C85E807000FCCD2
:1056B000049C0FC49AE8070084E80700069C0FCCFE
:1056C000AEE80F009AE80700079C8EE807000FCCB1
:1056D000ACE80F009AE807008CE8070011B0BDE8BD
:1056E000F08F00BF50000024D05A012410B50A4C9E
:1056F00004F11C0007F0C0FEE369DB69DB0602D59C
:1057000094F8983103B910BD2046FFF785FBE36993
:1057100010221A6210BD00BFC042012410B50B4C0C
:1057200004F5327007F0A8FED4F8C832DB69DB0656
:1057300002D594F8443403B910BD04F52B70FFF77B
:105740006BFBD4F8C83210221A6210BDC04201248B
:1057500010B50B4C04F2745007F08EFED4F874357B
:10576000DB69DB0602D594F8F03603B910BD04F509
:10577000AB60FFF751FBD4F8743510221A6210BDEC
:10578000C042012410B50B4C04F5026007F074FE12
:10579000D4F82038DB69DB0602D594F89C3903B9CC
:1057A00010BD04F60400FFF737FBD4F820381022B0
:1057B0001A6210BDC042012410B50B4C04F6CC2077
:1057C00007F05AFED4F8CC3ADB69DB0602D594F830
:1057D000483C03B910BD04F52B60FFF71DFBD4F85E
:1057E000CC3A10221A6210BDC042012410B50B4CF5
:1057F00004F6785007F040FED4F8783DDB69DB060C
:1058000002D594F8F43E03B910BD04F65C50FFF7DE
:1058100003FBD4F8783D10221A6210BDC042012467
:1058200010B50A4C04F1240007F026FE636ADB6918
:10583000DB0602D594F8A03103B910BD04F10800CD
:10584000FFF7EAFA636A10221A6210BDC0520124FF
:1058500010B50B4C04F5347007F00EFED4F8D032BE
:10586000DB69DB0602D594F84C3403B910BD04F5AE
:105870002D70FFF7D1FAD4F8D03210221A6210BD81
:10588000C052012410B50B4C04F27C5007F0F4FD1B
:10589000D4F87C35DB69DB0602D594F8F83603B919
:1058A00010BD04F5AC60FFF7B7FAD4F87C351022D0
:1058B0001A6210BDC052012410B5EFF3108472B605
:1058C000084B1A78120602D504B962B610BD1B78CF
:1058D0004FF42B70044A5BB200FB032002F050FB34
:1058E000F2E700BFD05A01246843012410B5EFF35A
:1058F000108472B6084B1A78120602D504B962B643
:1059000010BD1B784FF42B70044A5BB200FB0320E0
:1059100002F036FBF2E700BFD05A0124E043012435
:105920000021FFF755BC00BF0021FFF751BC00BFAD
:105930000121FFF74DBC00BF2DE9F0414F684FF446
:105940002B76DFF8D8808E4607FB06F60C46082F2C
:1059500006EB08050560AC46BEE80F00ACE80F009A
:105960009EE807008CE8070002D8EB68022B02D9FA
:105970000120BDE8F081AA68032AF9D82969022923
:10598000F6D868690228F3D80131DFF894C01C36D4
:1059900089005CF827704644EF61A46929631B49BC
:1059A0002C6251F82330EB62194B53F82230194A1C
:1059B000AB62002352F8202030466B646A62C5E96E
:1059C0000D33C5E90F3309F045F90028D0D1014660
:1059D000304609F097F90028CAD10146304609F04F
:1059E000E3F90028C4D1304609F06EF90028BFD190
:1059F000094A85F89801C2F80401C5F89C21C2F84B
:105A00000001C5F8A402C5F8A002B2E7D05601080B
:105A1000DC560108EC56010840410030C042012428
:105A2000AC5601080268D2F8A432D2F8A0125B1A70
:105A3000DBB2002BF7D0D2F8A032D1180133DBB2A1
:105A400091F8A001C2F8A032704700BF2DE9F047DD
:105A50003B4E012205683378D5F89C711B0685F80A
:105A600098211AD46A68EFF3108072B6354BC2EBF6
:105A7000C202002443F8227003EB82034FF48072C9
:105A80005D611A81304A5C60DC609C611A6108B912
:105A900062B604462046BDE8F08705F11C08404682
:105AA00007F0DCFD2028FAD1002201212846FFF76B
:105AB00001F9044690BBEFF3108A72B695F90430F1
:105AC0003946DFF88C904FF48072204F4046337097
:105AD0001D4B3D60C9F8003007F0FAFB30B9BAF150
